{
  "_format": "hh-sol-artifact-1",
  "contractName": "DutchAuction",
  "sourceName": "contracts/DutchAuction.sol",
  "abi": [
    {
      "inputs": [
        {
          "internalType": "uint256",
          "name": "_reservePrice",
          "type": "uint256"
        },
        {
          "internalType": "uint256",
          "name": "_numBlocksAuctionOpen",
          "type": "uint256"
        },
        {
          "internalType": "uint256",
          "name": "_offerPriceDecrement",
          "type": "uint256"
        }
      ],
      "stateMutability": "nonpayable",
      "type": "constructor"
    },
    {
      "inputs": [],
      "name": "auctionOpenStatus",
      "outputs": [
        {
          "internalType": "bool",
          "name": "",
          "type": "bool"
        }
      ],
      "stateMutability": "view",
      "type": "function"
    },
    {
      "inputs": [],
      "name": "buyer",
      "outputs": [
        {
          "internalType": "address",
          "name": "",
          "type": "address"
        }
      ],
      "stateMutability": "view",
      "type": "function"
    },
    {
      "inputs": [],
      "name": "calculateCurrentOffer",
      "outputs": [
        {
          "internalType": "uint256",
          "name": "",
          "type": "uint256"
        }
      ],
      "stateMutability": "view",
      "type": "function"
    },
    {
      "inputs": [],
      "name": "endBlock",
      "outputs": [
        {
          "internalType": "uint256",
          "name": "",
          "type": "uint256"
        }
      ],
      "stateMutability": "view",
      "type": "function"
    },
    {
      "inputs": [],
      "name": "getBlock",
      "outputs": [
        {
          "internalType": "uint256",
          "name": "",
          "type": "uint256"
        }
      ],
      "stateMutability": "view",
      "type": "function"
    },
    {
      "inputs": [],
      "name": "initialPrice",
      "outputs": [
        {
          "internalType": "uint256",
          "name": "",
          "type": "uint256"
        }
      ],
      "stateMutability": "view",
      "type": "function"
    },
    {
      "inputs": [],
      "name": "numBlocksAuctionOpen",
      "outputs": [
        {
          "internalType": "uint256",
          "name": "",
          "type": "uint256"
        }
      ],
      "stateMutability": "view",
      "type": "function"
    },
    {
      "inputs": [],
      "name": "offerPriceDecrement",
      "outputs": [
        {
          "internalType": "uint256",
          "name": "",
          "type": "uint256"
        }
      ],
      "stateMutability": "view",
      "type": "function"
    },
    {
      "inputs": [],
      "name": "placeBid",
      "outputs": [
        {
          "internalType": "address",
          "name": "",
          "type": "address"
        }
      ],
      "stateMutability": "payable",
      "type": "function"
    },
    {
      "inputs": [],
      "name": "reservePrice",
      "outputs": [
        {
          "internalType": "uint256",
          "name": "",
          "type": "uint256"
        }
      ],
      "stateMutability": "view",
      "type": "function"
    },
    {
      "inputs": [],
      "name": "seller",
      "outputs": [
        {
          "internalType": "address",
          "name": "",
          "type": "address"
        }
      ],
      "stateMutability": "view",
      "type": "function"
    },
    {
      "inputs": [],
      "name": "startBlock",
      "outputs": [
        {
          "internalType": "uint256",
          "name": "",
          "type": "uint256"
        }
      ],
      "stateMutability": "view",
      "type": "function"
    }
  ],
  "bytecode": "0x60806040523480156200001157600080fd5b5060405162000cea38038062000cea833981810160405281019062000037919062000150565b8260008190555081600181905550806002819055506002546001546200005e919062000203565b6000546200006d9190620001a6565b6005819055506001600660006101000a81548160ff02191690831515021790555043600381905550600154600354620000a79190620001a6565b6004819055506000600660016101000a81548173ffffffffffffffffffffffffffffffffffffffff021916908373ffffffffffffffffffffffffffffffffffffffff16021790555033600760006101000a81548173ffffffffffffffffffffffffffffffffffffffff021916908373ffffffffffffffffffffffffffffffffffffffff160217905550505050620002b7565b6000815190506200014a816200029d565b92915050565b6000806000606084860312156200016657600080fd5b6000620001768682870162000139565b9350506020620001898682870162000139565b92505060406200019c8682870162000139565b9150509250925092565b6000620001b38262000264565b9150620001c08362000264565b9250827fffffffffffffffffffffffffffffffffffffffffffffffffffffffffffffffff03821115620001f857620001f76200026e565b5b828201905092915050565b6000620002108262000264565b91506200021d8362000264565b9250817fffffffffffffffffffffffffffffffffffffffffffffffffffffffffffffffff04831182151516156200025957620002586200026e565b5b828202905092915050565b6000819050919050565b7f4e487b7100000000000000000000000000000000000000000000000000000000600052601160045260246000fd5b620002a88162000264565b8114620002b457600080fd5b50565b610a2380620002c76000396000f3fe6080604052600436106100a75760003560e01c80635347525c116100645780635347525c146101ae57806357fc30c2146101d95780637150d8ae14610204578063d3642a881461022f578063db2e1eed1461025a578063ecfc7ecc14610285576100a7565b8063083c6323146100ac57806308551a53146100d75780631d0806ae146101025780632e97766d1461012d5780633103ea621461015857806348cd4cb114610183575b600080fd5b3480156100b857600080fd5b506100c16102a3565b6040516100ce91906107c9565b60405180910390f35b3480156100e357600080fd5b506100ec6102a9565b6040516100f991906106f3565b60405180910390f35b34801561010e57600080fd5b506101176102cf565b60405161012491906107c9565b60405180910390f35b34801561013957600080fd5b506101426102d5565b60405161014f91906107c9565b60405180910390f35b34801561016457600080fd5b5061016d6102dd565b60405161017a91906107c9565b60405180910390f35b34801561018f57600080fd5b506101986102e3565b6040516101a591906107c9565b60405180910390f35b3480156101ba57600080fd5b506101c36102e9565b6040516101d0919061070e565b60405180910390f35b3480156101e557600080fd5b506101ee6102fc565b6040516101fb91906107c9565b60405180910390f35b34801561021057600080fd5b50610219610332565b60405161022691906106f3565b60405180910390f35b34801561023b57600080fd5b50610244610358565b60405161025191906107c9565b60405180910390f35b34801561026657600080fd5b5061026f61035e565b60405161027c91906107c9565b60405180910390f35b61028d610364565b60405161029a91906106f3565b60405180910390f35b60045481565b600760009054906101000a900473ffffffffffffffffffffffffffffffffffffffff1681565b60055481565b600043905090565b60015481565b60035481565b600660009054906101000a900460ff1681565b600060025460035461030c6102d5565b610316919061084f565b61032091906107f5565b60055461032d919061084f565b905090565b600660019054906101000a900473ffffffffffffffffffffffffffffffffffffffff1681565b60025481565b60005481565b6000600660009054906101000a900460ff166103b5576040517f08c379a00000000000000000000000000000000000000000000000000000000081526004016103ac90610769565b60405180910390fd5b600760009054906101000a900473ffffffffffffffffffffffffffffffffffffffff1673ffffffffffffffffffffffffffffffffffffffff163373ffffffffffffffffffffffffffffffffffffffff161415610446576040517f08c379a000000000000000000000000000000000000000000000000000000000815260040161043d90610789565b60405180910390fd5b60003411610489576040517f08c379a000000000000000000000000000000000000000000000000000000000815260040161048090610729565b60405180910390fd5b60006104936102fc565b9050803410156104d8576040517f08c379a00000000000000000000000000000000000000000000000000000000081526004016104cf906107a9565b60405180910390fd5b60006104e26102d5565b90506004548110610528576040517f08c379a000000000000000000000000000000000000000000000000000000000815260040161051f90610749565b60405180910390fd5b33600660016101000a81548173ffffffffffffffffffffffffffffffffffffffff021916908373ffffffffffffffffffffffffffffffffffffffff160217905550600760009054906101000a900473ffffffffffffffffffffffffffffffffffffffff1673ffffffffffffffffffffffffffffffffffffffff166108fc349081150290604051600060405180830381858888f193505050501580156105d1573d6000803e3d6000fd5b506000600660006101000a81548160ff021916908315150217905550600660019054906101000a900473ffffffffffffffffffffffffffffffffffffffff169250505090565b61062081610883565b82525050565b61062f81610895565b82525050565b60006106426023836107e4565b915061064d826108fa565b604082019050919050565b60006106656019836107e4565b915061067082610949565b602082019050919050565b6000610688601a836107e4565b915061069382610972565b602082019050919050565b60006106ab6011836107e4565b91506106b68261099b565b602082019050919050565b60006106ce601f836107e4565b91506106d9826109c4565b602082019050919050565b6106ed816108c1565b82525050565b60006020820190506107086000830184610617565b92915050565b60006020820190506107236000830184610626565b92915050565b6000602082019050818103600083015261074281610635565b9050919050565b6000602082019050818103600083015261076281610658565b9050919050565b600060208201905081810360008301526107828161067b565b9050919050565b600060208201905081810360008301526107a28161069e565b9050919050565b600060208201905081810360008301526107c2816106c1565b9050919050565b60006020820190506107de60008301846106e4565b92915050565b600082825260208201905092915050565b6000610800826108c1565b915061080b836108c1565b9250817fffffffffffffffffffffffffffffffffffffffffffffffffffffffffffffffff0483118215151615610844576108436108cb565b5b828202905092915050565b600061085a826108c1565b9150610865836108c1565b925082821015610878576108776108cb565b5b828203905092915050565b600061088e826108a1565b9050919050565b60008115159050919050565b600073ffffffffffffffffffffffffffffffffffffffff82169050919050565b6000819050919050565b7f4e487b7100000000000000000000000000000000000000000000000000000000600052601160045260246000fd5b7f4269642076616c7565206d7573742062652067726561746572207468616e207a60008201527f65726f0000000000000000000000000000000000000000000000000000000000602082015250565b7f41756374696f6e2068617320616c726561647920656e64656400000000000000600082015250565b7f41756374696f6e2068617320616c726561647920636c6f736564000000000000600082015250565b7f53656c6c65722063616e6e6f7420626964000000000000000000000000000000600082015250565b7f426964206973206c6f776572207468616e2063757272656e74206f666665720060008201525056fea2646970667358221220a04e4e7a60980f6507dd47e909ba543f5838411cf98bb85784b69caef00763e564736f6c63430008040033",
  "linkReferences": {},
  "deployedLinkReferences": {}
}